:020000040800F2
:10000000E009002099010008BB1A0008DD1800086B
:10001000B91A00082D060008851F0008000000001E
:10002000000000000000000000000000DF1A0008CF
:100030007908000800000000DD1A0008E11A000835
:10004000B3010008B3010008B3010008B3010008C0
:10005000B3010008B3010008B3010008B3010008B0
:10006000B3010008B3010008B3010008B3010008A0
:10007000B3010008B3010008B3010008B301000890
:10008000B3010008B3010008B3010008B301000880
:10009000B3010008B3010008B3010008B301000870
:1000A000B3010008B3010008B3010008B301000860
:1000B0009D1B0008B3010008B3010008B30100084C
:1000C000B3010008B3010008B3010008B301000840
:1000D000B3010008791F0008B3010008B30100084C
:1000E000B3010008B3010008B301000800F002F8F2
:1000F00000F043F80AA090E8000C82448344AAF17F
:100100000107DA4501D100F038F8AFF2090EBAE87C
:100110000F0013F0010F18BFFB1A43F0010318473B
:10012000501F0000701F0000103A24BF78C878C12B
:10013000FAD8520724BF30C830C144BF04680C60ED
:10014000704700000023002400250026103A28BF35
:1001500078C1FBD8520728BF30C148BF0B60704739
:100160001FB500F07DF904000020002101F05EFFC2
:10017000401C60601FBD10B510BD00F04CF9114669
:10018000FFF7EEFF01F000FF00F07CF903B4FFF78A
:10019000F2FF03BC00F0C0F9094880470948004756
:1001A000FEE7FEE7FEE7FEE7FEE7FEE7FEE7FEE727
:1001B000FEE7FEE704480549054A064B7047000084
:1001C000551B0008ED000008E0030020E0090020B6
:1001D000E0050020E005002070B5064600F052F86A
:1001E0000468054630460A22002100F04FF82C60D2
:1001F00070BD032A40F2308010F0030C00F015802F
:1002000011F8013BBCF1020F624498BF11F801CB19
:1002100000F8013B38BF11F8013BA2F1040298BF7E
:1002200000F801CB38BF00F8013B11F0030300F0E8
:100230006580083AC0F0088051F8043B083A51F84C
:1002400004CBA0E80810F5E7121D5CBF51F8043B91
:1002500040F8043BAFF30080D20724BF11F8013B04
:1002600011F801CB48BF11F8012B24BF00F8013B66
:1002700000F801CB48BF00F8012B7047704770476A
:100280007047000000487047800300202DE9F047C8
:1002900091460F4680460446002614F8015B2DB1B6
:1002A00000F062F80068405DC007F6D12B2D02D047
:1002B0002D2D18D0641E4A463946204600F05CF8C1
:1002C00027B13968A14201D1C7F800804FF002047C
:1002D00071050BD54042002803DDFFF7D3FF046012
:1002E000A007BDE8F08746F48066E4E70028F8DA66
:1002F000FFF7C8FF04606FF00040F2E710B5203A46
:10030000C0F00B80B1E81850203AA0E81850B1E8CE
:100310001850A0E81850BFF4F5AF5FEA027C24BF84
:10032000B1E81850A0E8185044BF18C918C0BDE87B
:1003300010405FEA827C24BF51F8043B40F8043B44
:1003400008BF7047D20728BF31F8023B48BF11F8F9
:10035000012B28BF20F8023B48BF00F8012B704753
:10036000004870478003002010B500F079F8001DA8
:1003700010BD00BFB91C00002DE9F05F8246154694
:100380008B4600270AF10104B9460078302801D0D5
:100390009DB113E014F8010B0127782803D05828E9
:1003A00001D045B10AE00DB1102D07D1002714F896
:1003B000010B102502E0082500E00A250026B046C2
:1003C0000EE005FB080005FB06F101271FFA80F887
:1003D00001EB1046B6F5803F00D3B94614F8010B87
:1003E000294600F041F80028EBDABBF1000F05D0F8
:1003F0000FB1641E00E05446CBF80040B9F1000F85
:1004000006D0FFF73FFF02210160C81EBDE8F09F44
:1004100048EA0640FAE77546FFF7A2FFAE46050038
:100420006946534620F00700854618B020B5FFF70F
:10043000C1FEBDE820404FF000064FF000074FF02E
:1004400000084FF0000B21F00701AC46ACE8C009F2
:10045000ACE8C009ACE8C009ACE8C0098D467047FB
:1004600000487047A00300203A2800D2303820F01E
:100470002002412A01D3A2F13700884201D34FF074
:10048000FF30704710B50446AFF300802046BDE84A
:100490001040FFF77BBE00004FF0013C50F8042BEA
:1004A00051F8043B9A4221D1A2EB0C03934313EA87
:1004B000CC1317D150F8042B51F8043B9A4215D1B4
:1004C000A2EB0C03934313EACC130BD150F8042B8B
:1004D00051F8043B9A4209D1A2EB0C03934313EA6F
:1004E000CC13DBD04FF00000704700BFD01A01BA28
:1004F000B1FA81F101F0180122FA01F0CB40C1F10B
:100500002001DBB2C0B2C01A2CFA01F3D11A914318
:1005100011EAC311E6D1704701491820ABBEFEE7CE
:1005200026000200704700002DE9F05F3D4D1446A3
:10053000884606464FF4004A01225146284600F0FC
:10054000DDFA01221102384800F0D8FA4FF4804752
:1005500000223946284600F0D1FA44EA08244FF434
:1005600000584FF6FF79A6B1012E59D1DFF8B8B087
:100570000022A915584600F0C1FAC2460026C84616
:1005800000223946284600F0B9FAA0052CD50122F0
:100590002BE00022D3465146284600F0AFFAC2466F
:1005A0000026C84600223946284600F0A7FAA005D2
:1005B00001D5012200E000225146284600F09EFAB3
:1005C00001223946284600F099FA761CF6B208EA6C
:1005D00044040A2EE6D300223946284600F08EFA5B
:1005E00001225946284617E000225146284600F0CD
:1005F00085FA01223946284600F080FA761CF6B2C8
:1006000008EA44040A2EBBD300223946284600F0EB
:1006100075FA012211025846BDE8F05F00F06EBA8B
:10062000BDE8F09F00100140000C0140FEE7000013
:1006300010B501221149124801F074F81149002047
:10064000642308700D2210A10D4801F0E9F8124949
:10065000124800F081F801220849094801F062F8C7
:1006600064230D220EA1064801F0DAF80A49BDE81C
:1006700010405231094800F06FB80000EA01002034
:1006800040030020030000205B4144435F5441428B
:100690004C452C305D00000090000020010000203F
:1006A0005B4144435F5441424C452C315D000000A6
:1006B00010B501220449054801F034F8BDE81040A6
:1006C0000349044800F048B8EA0100204003002034
:1006D000340100200000002010B501221149124809
:1006E00001F020F811490220642308700D2210A1A6
:1006F0000D4801F095F81249124800F02DF801223A
:100700000849094801F00EF864230D220EA106489D
:1007100001F086F80A49BDE810405231094800F05E
:100720001BB80000EA010020400300200300002065
:100730005B5444535F5441424C452C305D000000F3
:100740005A020020020000205B5444535F5441428F
:100750004C452C315D0000002DE9F04104460B486A
:1007600000250F4645700A4E06E00821304600F08D
:10077000C1F9142000F0CEF820780028F5D02570BB
:100780003846BDE8F041014900F036B8EA010020E2
:10079000000C014070B501220E490F4800F0C2FF65
:1007A0000E490120642308700C220DA10A4801F0B3
:1007B00037F80F4C0F4D06E00821284600F09AF953
:1007C000642000F0A7F820780028F5D000202070E1
:1007D00070BD0000EA01002040030020030000205B
:1007E0005B44454255475F454E2C315D000000009B
:1007F00000000020000C01402DE9FF5F00224D1C8D
:1008000091F96F4093460270012307E0EE5C2C2EB5
:1008100002D1521CD2B283545B1CDBB2A342F5DB83
:10082000521CD2B282778454FF24024400F1200883
:100830005470044690F91E5001F10109002617E09A
:10084000A15DA3194A1C5B78D2B2591A491ECFB2D6
:10085000EA4609EB02013A465046FFF7CAFC0AF89D
:1008600007B06846FFF7B8FC28F81600761CF6B209
:10087000AE42E5DBBDE8FF9F7047000010B590F881
:1008800021100024022903D00421816301243DE0CA
:1008900001680A6822F00E020A6001680A6822F004
:1008A00001020A601A4A0168914201D1012121E046
:1008B000174A1432914201D110211BE0144A283208
:1008C000914201D1891515E0114A3C32914201D182
:1008D00089140FE00E4A5032914202D14FF4803118
:1008E00008E00B4A6432914202D14FF4801101E0DA
:1008F0004FF08071064A083A5160012180F82110BA
:10090000002180F82010416B01B18847204610BDBE
:100910000800024070B5044600F0F6F80546601C79
:1009200002D004480078044400F0EEF8401BA042D6
:10093000FAD370BD100000202DE9F84FDFF890A128
:1009400000220AF1040B144601274FF00F090BF1A6
:10095000040E00BF0B6807FA04F52B40AB4274D1BC
:10096000DFF870C14E68A6EB0C0866452BD00DDC95
:10097000032E34D005DC36B3012E19D0022E2FD130
:100980001BE0112E16D0122E2AD119E0B8F5881FBF
:1009900019D006DCB8F5803F15D0B8F5801F1FD1FF
:1009A00011E0B8F5001F0ED0B8F5041F18D10AE009
:1009B000CA6815E0CA68121D12E0CA6808320FE062
:1009C000CA680C320CE08A682AB1012A4FF008028A
:1009D00003D0456104E0042202E0056100E000224A
:1009E000FF2B01D8064601E000F104064FEA84051A
:1009F00001D9A5F12005D6F800C009FA05F82CEABE
:100A0000080C02FA05F54CEA050CC6F800C04D6862
:100A1000ED0057D5304DAE6946F00106AE61AD69C7
:100A200024F0030605F0010500952C4D06EB050C9E
:100A3000DCF80850A6074FEA167809FA08F6B5431D
:100A4000274EB04202D1002610E03BE0254EB042D6
:100A500001D101260AE0244EB04201D1022605E070
:100A6000224EB04201D1032600E0042606FA08F621
:100A70002E43CCF808604D68DAF80060ED03554667
:100A800001D51E4300E09E432E604D68DBF80060F8
:100A9000AD035D4601D51E4300E09E432E604D68C8
:100AA000DEF80060ED02754601D51E4300E09E436E
:100AB0002E604D68AD020E4D2E6801D51E4300E03C
:100AC0009E432E60641C102CFFF444AFBDE8F88FE9
:100AD000000401400000111000100240000001401D
:100AE00000080140000C01400010014000140140CA
:100AF0000C040140C2684A40C26070470AB10161FB
:100B000070470904FBE70000014880687047000057
:100B1000100000200248816802781144816070470B
:100B200010000020074810B5016841F01001016075
:100B3000032000F09DF8002000F006F800F024F8F3
:100B4000002010BD0020024070B50D4D04464FF44A
:100B50007A712878B1FBF0F00A490968B1FBF0F02E
:100B600000F02DFB48B9102C07D200222146501E60
:100B700000F05EF800206C6070BD012070BD0000C8
:100B8000100000201C000020214808B5816941F0B8
:100B900001018161816901F001010091C16941F0A8
:100BA0008051C161C06900F080500090032000F0C6
:100BB0005FF8002211466FF00B0000F039F80022B8
:100BC00011466FF00A0000F033F8002211466FF072
:100BD000090000F02DF800221146501F00F028F8FF
:100BE00000221146101F00F023F800221146901E2B
:100BF00000F01EF800221146501E00F019F80548BA
:100C0000416821F0E06141F00071416008BD0000E1
:100C1000001002400000014000F01F02012191403D
:100C20004009800000F1E020C0F80011704700008A
:100C3000F0B40E4B1B680C46C3F30223C3F1070547
:100C4000042D00D90425191D072901D2002300E035
:100C5000DB1E012606FA05F1491E214099409E40FF
:100C6000761E16403143F0BC00F028BF0CED00E0CA
:100C7000064900F0070208684FF6FF03184040EAF3
:100C80000220034A10430860704700000CED00E0AA
:100C90000000FA052DE9F047DFF83C8105460E46D5
:100CA000D8F8000000F00700B0420CD2D8F80010CD
:100CB00021F007013143C8F80010D8F8000000F017
:100CC0000700B04263D12878444C800705D560689E
:100CD000A96820F0F000084360602878C00745D07C
:100CE0006868012816D02168022816D089070029D3
:100CF0004DDA616821F0030101436160FFF704FFF1
:100D00006968074641F2883001290FD002298146DF
:100D100019D027E021688903E9E78901E7E700BFE7
:100D2000FFF7F2FEC11B494501D918E08146606812
:100D3000C0F381000128F3D118E000BFFFF7E4FE03
:100D4000C11B49450BD86068C0F381000228F5D16A
:100D50000CE000BFFFF7D8FEC11B494502D90320B4
:100D6000BDE8F087606810F00C0FF3D1D8F80010E0
:100D7000404601F00701B1420BD9016821F007019B
:100D800031430160006800F00700B04201D001204B
:100D9000E6E72878400705D56068E96820F4E06058
:100DA000084360602878000706D56068296920F448
:100DB000605040EAC100606000F03CF86168084A99
:100DC000C1F30311515CC840064908600020FFF7D9
:100DD000BBFE0020C4E700000020024000100240DB
:100DE000582000081C0000200148006870470000DF
:100DF0001C0000200448054900684968044AC1F302
:100E00000221515CC84070471C00002000100240C5
:100E1000682000080448054900684968044AC1F38D
:100E2000C221515CC84070471C00002000100240E5
:100E30006820000812A185B00FC98DE80F0014A02A
:100E4000144A006804905168134801F00C03042B05
:100E500010D0082B0ED1C1F38343C9031DF8030042
:100E60000AD5516804AAC1F34041515C0A4A504373
:100E7000B0FBF1F005B0704708494843FAE70000BD
:100E800002030405060708090A0B0C0D0E0F1010CB
:100E9000010200000010024000127A0000093D002B
:100EA0002DE9F84F04460078B94DC00748D068686E
:100EB000C0F38100012807D06868C0F381000228D0
:100EC00009D16868C00306D52868800338D56068F2
:100ED00000286FD034E06068B0F5803F0BD010B1CF
:100EE000B0F5A02F11D0286820F480302860286841
:100EF00020F4802002E0286840F480302860606898
:100F000088B1FFF701FE064609E0286840F480201A
:100F10002860F0E7FFF7F8FD801B642875D8286883
:100F20008003F7D50CE0FFF7EFFD064605E000BFB4
:100F3000FFF7EAFD801B6428F0D828688003F7D407
:100F40002078944E80074FF001094FF000083BD500
:100F5000686810F00C0F07D06868C0F381000228A1
:100F600009D16868C00306D42868800714D52069B1
:100F700001281FD110E02069B0B1C6F80090FFF73A
:100F8000C3FD074605E000BFFFF7BEFDC01B0228FA
:100F9000C4D828688007F7D52868616920F0F80070
:100FA00040EAC10028600FE0C6F80080FFF7ACFD02
:100FB000074606E0E9E000BFFFF7A6FDC01B0228D8
:100FC00023D828688007F7D4207800072CD57248EA
:100FD000A169D9B1C0F80090FFF796FD074604E07B
:100FE000FFF792FDC01B02280FD8686A8007F7D56B
:100FF0006A484FF4FA510068B0FBF1F0009000BF6E
:101000000098411E0091FAD20EE080E0C0F8008006
:10101000FFF77AFD074604E0FFF776FDC01B0228C4
:1010200075D8686A8007F7D42078400760D5E869EA
:101030000027C00008D4E86940F08050E861E86902
:10104000012700F08050009055480168C90513D46D
:101050000168834641F480710160FFF755FD8246C7
:1010600006E000BFFFF750FDA0EB0A0064284ED851
:10107000DBF80000C005F5D5E06801280AD008B10A
:10108000052813D0286A20F001002862286A20F081
:10109000040002E0286A40F001002862E06841F2A2
:1010A000883B98B1FFF730FD82460BE0286A40F09C
:1010B00004002862EEE700BFFFF726FDA0EB0A015F
:1010C00059455AD8286A8007F6D50CE0FFF71CFD71
:1010D000824605E0FFF718FDA0EB0A0159454CD800
:1010E000286A8007F6D41FB1E86920F08050E861D3
:1010F000E06988B36968C1F38101022945D00228FB
:10110000C6F8608004D0FFF7FFFC044638E034E006
:10111000FFF7FAFC074604E0FFF7F6FCC01B0228C5
:101120002BD828688001F7D4206AB0F5803F05D11C
:101130006868A16820F4003008436860D4E90801B9
:101140000843696821F4741108436860C6F8609028
:10115000FFF7DAFC044606E015E000BFFFF7D4FC19
:10116000001B022809D828688001F7D50BE000BFD2
:10117000FFF7CAFC001B022802D90320BDE8F88F44
:1011800028688001F4D40020F8E70120F6E7000089
:101190000010024000004242800442421C00002035
:1011A000007000404FF0E0210428086903D020F0CF
:1011B00004000861704740F00400FAE7704710B57A
:1011C000401EB0F1807F01D3012010BD4FF0E0241C
:1011D00060610F21601700F071FC0020A061072002
:1011E0002061002010BD10B5FFF7E8FF10BD70476B
:1011F000704730B590F83C20012A20D0012280F8B9
:101200003C20022380F83D3003685C6824F07004C1
:101210005C6003685C680D682C435C6003689C68D4
:1012200024F080049C6003689C6849680C439C60BF
:1012300080F83D20002180F83C10084630BD022097
:1012400030BD10B5040003D094F83D0010B107E0A4
:10125000012010BD002084F83C00204600F00CF86E
:10126000022084F83D00211D206800F09DFC012033
:1012700084F83D00002010BD08B50068B0F1804F33
:1012800012D10A48C16941F00101C161C06900225F
:1012900000F00100009011461C20FFF7C9FCBDE8DA
:1012A00008401C20FFF7B8BC08BD00000010024039
:1012B00070B5044690F83C00012817D0012584F849
:1012C0003C50022084F83D002068826822F07702BA
:1012D00022F47F4282600868502837D00DDC202835
:1012E00059D005DC88B3102841D151E0022070BDEF
:1012F000302853D040283AD13FE060282ED07028C3
:101300000BD0B0F5805F03D0B0F5005F2FD110E0B7
:101310002068816821F0070115E0CB68D1E901213F
:10132000206800F077FC2168886840F077008860CA
:101330001DE0CB68D1E90121206800F06BFC20683A
:10134000816841F48041816011E01EE0CA6849680B
:10135000206800F071FC5021206806E0CA684968E6
:10136000206800F07AFC6021206800F05DFC84F8C1
:101370003D50002084F83C0070BDCA684968206870
:1013800000F05AFC40212068EFE700212068ECE7DC
:1013900010212068E9E720212068E6E73021206855
:1013A000E3E7704770B50446006801694FF0000537
:1013B000C943890715D4C168C943890711D4E91EF7
:1013C000016101202077206880698007204602D0D3
:1013D000FFF7E7FF04E000F098F8204600F096F8E9
:1013E000257720680169C943490717D4C168C943F3
:1013F000490713D46FF004010161022020772068AF
:10140000806910F4407F204602D0FFF7CAFF04E055
:1014100000F07BF8204600F079F825772068016914
:10142000C943090716D4C168C943090712D46FF02C
:1014300008010161042020772068C06980072046E8
:1014400002D0FFF7AEFF04E000F05FF8204600F0A6
:101450005DF8257720680169C943C90617D4C168BA
:10146000C943C90613D46FF0100101610820207729
:101470002068C06910F4407F204602D0FFF791FF3A
:1014800004E000F042F8204600F040F8257720689C
:101490000169C943C90708D1C168C943C90704D153
:1014A000891E0161204600F033F820680169C943B4
:1014B000090609D4C168C943090605D46FF0800143
:1014C00001612046FFF793FE20680169C943490680
:1014D00009D4C168C943490605D46FF040010161D0
:1014E000204600F02FF820680169C94389060BD413
:1014F000C168C943890607D46FF020010161204605
:10150000BDE87040FFF774BE70BD704770470000C3
:1015100009490068096888420DD108480188491CBA
:1015200089B20180B1F57A7F05D1002101800821BF
:101530000348FFF7DFBA7047000300200C000020CB
:10154000000C01407047704770B50268044610688F
:10155000D168536910F00F0F50D003F0010501F46A
:10156000907635435DD0C20705D0CA0503D5E26B3E
:1015700042F00102E263420705D5DA0703D0E26BCD
:1015800042F00202E263820705D5DA0703D0E26B7C
:1015900042F00402E263020705D5DA0703D0E26BEA
:1015A00042F00802E263E26B002A33D0800604D5E1
:1015B000880602D5204600F078FB20684069E16B80
:1015C000C0F38010090700D428B3204600F05FFB69
:1015D0002068416949061AD5416921F040014161FD
:1015E000606BA0B11B494163606BFFF747F90028AE
:1015F00010D0606B416BBDE870400847830610D582
:101600008B060ED52046BDE8704000F04EBB20464C
:10161000FFF799FF70BD2046FFF795FF0020E063BC
:1016200070BD030606D50B0604D52046BDE8704004
:1016300000F03EBC4006F3D54806F1D5D1682046FF
:1016400021F04001D160202184F8391000F045F9E3
:1016500070BD00007F1C000870B5040004D094F831
:101660003900002510B106E0012070BD84F8385023
:10167000204600F023F8242084F839002068C1684F
:1016800021F40051C160204600F05AFB2068016936
:1016900021F4904101612068416921F02A014161F2
:1016A0002068C16841F40051C160E563202084F8DE
:1016B000390084F83A00002070BD000010B50068C1
:1016C000154986B0884225D11448816941F480418A
:1016D00081618069124C00F4804004904FF40070E6
:1016E0000090022001900320039069462046FFF7F6
:1016F00023F900212015CDE9000102916946204619
:10170000FFF71AF9002211462520FFF791FA25204C
:10171000FFF782FA06B010BD003801400010024009
:101720000008014090F83A30202B22D1F9B1F2B1F3
:1017300090F83830012B1CD081628285C28500214F
:10174000C163222280F83A2080F838100168CA6804
:1017500042F48072CA6001684A6942F001024A613B
:101760000068C16841F02001C1600020704701207D
:10177000704702207047000030B4234900680968B0
:10178000884234D121480024431C02785B2A10D0BF
:10179000014691F86F10491C49B25D2A80F86F101C
:1017A0000BD06E2901DB80F86F4090F96F00C254B6
:1017B00022E080F86F40E2541EE06E2901DB80F8E1
:1017C0006F4090F96F10CA5411490122097801291C
:1017D00002D1104B1C7864B10F4803780B4305D03D
:1017E000022904D10D480178002900D1027030BCD3
:1017F000704740785B2805D030BC0122034902487D
:10180000FFF790BF1A70F2E740030020EA010020C2
:101810000300002000000020010000200200002042
:101820002DE9F843044690F839001F4616460D4648
:10183000202850D1A5B19EB194F8380001284AD093
:10184000012084F838004FF00008C4F83C802120C3
:1018500084F83900FFF758F9A6848146E68426E02B
:101860000120BDE8F883E08C401EE084A0684B4670
:10187000B0F5805F4FF000024FF0800120460097E6
:1018800003D000F046FBE8B90DE000F042FBC8B918
:1018900028882168C0F308004860206908B16D1CE1
:1018A00005E0AD1C03E0216815F8010B4860E08CF1
:1018B0000028D8D14B46002240212046009700F056
:1018C00028FB08B10320CCE7202084F8390084F8F5
:1018D00038800020C5E70220C3E77047FEE700001C
:1018E0002DE9F0473E4886B0816941F010018161E1
:1018F000816901F010010491816941F00401816165
:10190000816901F004010491816941F0080181615C
:10191000816901F008010491816941F02001816130
:101920008069304F00F020004FF6304404900122CF
:1019300021463846FFF7E2F8DFF8AC9048F2FF06A0
:10194000012231464846FFF7D9F8DFF8A08001228E
:1019500040F209114046FFF7D1F8DFF894A00122C8
:1019600004215046FFF7CAF8002210214046FFF735
:10197000C5F8009401240025CDE9014569463846A3
:101980000394FEF7D9FF0096CDE901456946484624
:101990000394FEF7D1FF40F219108DE8310069463B
:1019A00040460394FEF7C8FF2003CDE900056946D1
:1019B00002944046FEF7C0FF4FF4A070CDE9000549
:1019C000694602943846FEF7B7FF04208DE83100DF
:1019D000694650460394FEF7AFFF06B0BDE8F087B6
:1019E000001002400010014000080140000C0140BE
:1019F0000014014010B5184886B04FF080410160D6
:101A00003C210024C0E9011440F2E731C0E903148D
:101A100080218161FFF715FC18B13F210FA000F074
:101A2000B2FA4FF48050009069460B48FFF740FC33
:101A300018B1452109A000F0A6FA049404A90648AB
:101A40000594FFF7D6FB002803D04C2103A000F03B
:101A50009AFA06B010BD0000000300202E2E2F536E
:101A600072632F74696D2E63000000000D4810B57D
:101A70000B4901604FF4E1314160002181600C228B
:101A8000C160C0E904128161C161FFF7E5FD002872
:101A900005D0BDE81040422103A000F074BA10BD8B
:101AA00000380140400300202E2E2F5372632F7503
:101AB000736172742E630000FEE770470907090E18
:101AC000002806DA00F00F0000F1E02080F8141D75
:101AD000704700F1E02080F80014704770477047AD
:101AE00010B5FFF717F8BDE81040FFF77CBB30B525
:101AF0008FB002250120049000951020059000244D
:101B00004FF45010CDE9084007956846FFF7C8F933
:101B100000B1FEE70F20CDE90A054FF48060CDE962
:101B20000C4002210AA80E94FFF7B4F800B1FEE7BA
:101B3000FFF75AF94FF47A71B0FBF1F0FFF73FFB72
:101B40000420FFF72FFB00221146501EFFF770F80C
:101B50000FB030BD0D48016841F0010101604168DE
:101B60000B4A1140416001680A4A11400160016856
:101B700021F480210160416821F4FE0141604FF4AD
:101B80001F0181600449C0030860704700100240D3
:101B90000000FFF8FFFFF6FE08ED00E00148FFF748
:101BA00001BC000000030020F0B50268164B174C82
:101BB000174D4FF08047984205D0B84203D0A0425D
:101BC00001D0A84203D122F070064A6832439842FD
:101BD00005D0B84203D0A04201D0A84203D122F4DC
:101BE0004074CA68224322F080044A69224302609A
:101BF0008A68C2620A688262984201D109690163F7
:101C000001214161F0BD0000002C014000040040B2
:101C10000008004010B5846842EA032224F47F449F
:101C20000A432243826010BD826822F070020A4398
:101C300042F007018160704710B5036A046A24F01E
:101C400001040462846924F0F00444EA021423F0DD
:101C50000A020A438461026210BD10B5036A23F0D0
:101C6000100303628369046A23F4704343EA023277
:101C700024F0A00343EA01118261016210BD10B596
:101C8000406A0021C185C184FFF75DFC10BD016879
:101C9000CA6822F49072CA6001684A6922F001029F
:101CA0004A61202180F83A10704710B590F83A1038
:101CB000222901D0022010BD8168B1F5805F11D0CA
:101CC0000169002901681FD0496801F07F03816A1A
:101CD0004A1C82620B70C18D491E0904090CC18522
:101CE00018D02BE00269816A002A0268526805D088
:101CF000D2B20A80816A491C8162ECE7C2F3080211
:101D00000A80816A891CF7E74A68816A4B1C8362F2
:101D10000A70E0E70168CA6822F02002CA60016820
:101D2000CA6822F48072CA6001684A6922F001021E
:101D30004A61202180F83A10FFF71EFD002010BDF7
:101D40002DE9F041044600680169E26821F4405140
:101D5000114301612169A068084361690843216852
:101D6000CA6841F20C639A430243CA602068416921
:101D7000A26921F44071114341614C4920686425F6
:101D8000322688423CD1FFF745F800EBC00101EB59
:101D9000001061688900B0FBF1F7FFF73BF800EB3A
:101DA000C00101EB00106168B0468900B0FBF1F0A2
:101DB000B0FBF5F06FF01801484307EB800106EB2C
:101DC0000110B0FBF5F000F0F006FFF723F800EB90
:101DD000C00101EB001061688900B0FBF1F0B0FBBD
:101DE000F5F006EB0016FFF715F800EBC00101EB6C
:101DF000001061688900B0FBF1F7FFF70BF83BE0DA
:101E0000FEF7F8FF00EBC00101EB001061688900EC
:101E1000B0FBF1F7FEF7EEFF00EBC00101EB0010A5
:101E20006168B0468900B0FBF1F0B0FBF5F06FF0EF
:101E30001801484307EB800106EB0110B0FBF5F0F9
:101E400000F0F006FEF7D6FF00EBC00101EB00103A
:101E500061688900B0FBF1F0B0FBF5F006EB00160D
:101E6000FEF7C8FF00EBC00101EB001061688900BC
:101E7000B0FBF1F7FEF7BEFF00EBC00101EB001075
:101E800061688900B0FBF1F0B0FBF5F06FF018016C
:101E9000484307EB800108EB0110B0FBF5F0216827
:101EA00000F00F0030448860BDE8F0810038014048
:101EB00090F83910212901D0022070478168B1F5CE
:101EC000805F016A0BD04A1C026202680978516087
:101ED000C18C491E0904090CC1840ED017E0098881
:101EE0000268C1F30801516001690029016A02D04A
:101EF000491C0162ECE7891CFBE70168CA6822F013
:101F00008002CA600068C16841F04001C1600020E1
:101F100070472DE9F041984617460E460446069D47
:101F20001DE0681C1BD02DB1FEF7EEFDA0EB0800F4
:101F3000A84214D92068C16821F4D071C16020681A
:101F4000416921F001014161202084F8390084F8C1
:101F50003A00002084F838000320BDE8F0812068B2
:101F6000006836EA000004D00020B842D9D0002032
:101F7000F3E70120F9E700000148FFF7E5BA0000A8
:101F800040030020FEE7FEE7FEF7CCFDFFF7AFFDC4
:101F9000FFF7A6FCFFF72EFDFFF768FD1F4CFF22A1
:101FA0000021A28624F8322F012062872287FEF7C3
:101FB000BBFA002122780846FEF7B6FA012194F810
:101FC0003A200846FEF7B0FA94F8382001210020A4
:101FD000FEF7AAFA0A20FEF79DFCFEF729FBFEF7A2
:101FE0007BFBFEF7D7FB00240D4E0E4DFEF760FB8A
:101FF000308C25F8140005EB4401641C708CE4B2AD
:102000008880022CF2D3084C4FF47A7508212046C0
:10201000FEF770FD2846FEF77DFCF7E72000002064
:102020003401002004000020000C014010B50029FC
:102030000AD00878002807D005487844FEF72CFA23
:10204000002801D0002010BD0248784410BD0000D7
:10205000560000004E0000000000000000000000DC
:10206000010203040607080900000000010203043E
:10207000A021000800000020200000002801000826
:10208000C021000820000020C00900004401000811
:102090001001000043000000F8FFFFFF0040404037
:1020A000404040404040414141414140404040402B
:1020B00040404040404040404040404040050202D7
:1020C0000202020202020202020202020220202096
:1020D00020202020202020020202020202029090F2
:1020E00090909090101010101010101010101010F0
:1020F0001010101010101010020202020202888844
:10210000888888880808080808080808080808084F
:102110000808080808080808020202024000000037
:1021200000000000000000000000000000000000AF
:10213000000000000000000000000000000000009F
:10214000000000000000000000000000000000008F
:10215000000000000000000000000000000000007F
:10216000000000000000000000000000000000006F
:10217000000000000000000000000000000000005F
:10218000000000000000000000000000000000004F
:10219000000000000000000000000000000000003F
:1021A000000000000000000000000000000000002F
:1021B00001000000100000000000000000A24A041E
:04000005080000ED02
:00000001FF
